:020000040800F2
:1000000000100020110C0008A5070008AB0700082D
:1000100000000000000000000000000000000000E0
:10002000000000000000000000000000B107000810
:100030000000000000000000BB070008C507000822
:10004000610C000800000000610C0008610C000851
:10005000610C0008610C0008610C0008610C0008CC
:1000600000000000610C0008D5070008610C0008C2
:10007000610C0008610C0008610C00080000000021
:10008000610C00080000000000000000610C000886
:1000900000000000610C0008610C0008610C000801
:1000A00000000000610C000800000000610C000866
:1000B0000000000000000000000000000000000040
:1000C00010B5064C2378002B07D1054B002B02D02E
:1000D000044800E000BF0123237010BD0C00002085
:1000E00000000000643D0008044B10B5002B03D055
:1000F0000349044800E000BF10BDC04600000000F6
:1001000010000020643D0008002243088B4274D395
:1001100003098B425FD3030A8B4244D3030B8B4208
:1001200028D3030C8B420DD3FF22090212BA030C11
:100130008B4202D31212090265D0030B8B4219D3F2
:1001400000E0090AC30B8B4201D3CB03C01A524112
:10015000830B8B4201D38B03C01A5241430B8B425A
:1001600001D34B03C01A5241030B8B4201D30B0343
:10017000C01A5241C30A8B4201D3CB02C01A52416A
:10018000830A8B4201D38B02C01A5241430A8B422D
:1001900001D34B02C01A5241030A8B4201D30B0216
:1001A000C01A5241CDD2C3098B4201D3CB01C01A30
:1001B000524183098B4201D38B01C01A524143093A
:1001C0008B4201D34B01C01A524103098B4201D328
:1001D0000B01C01A5241C3088B4201D3CB00C01A95
:1001E000524183088B4201D38B00C01A524143080D
:1001F0008B4201D34B00C01A5241411A00D2014632
:10020000524110467047FFE701B5002000F006F8A4
:1002100002BDC0460029F7D076E770477047C04658
:1002200070B5051E0ED000F03DF89E2304001B1A89
:10023000962B0CDC082801DD083CA5406D026D0AF8
:10024000D8B201E000200025C005284370BD992BDD
:1002500009DD020029001B3291404A1E914105220E
:10026000121AD5400D43052C12DC29000C4E3140EA
:100270006A0709D00F202840042805D004314A011C
:1002800002D59F2331401B1B89014D0AD8B2DBE701
:10029000621F95402900024E31406A07F4D0E9E719
:1002A000FFFFFFFB1C2101231B04984201D3000C1C
:1002B00010391B0A984201D3000A08391B099842D9
:1002C00001D30009043902A2105C40187047C046EF
:1002D000040302020101010100000000000000000F
:1002E00080B500AF074B00221A6000F055F80300FC
:1002F0001800FFF795FF021C034B1A60C046BD466D
:1003000080BDC0462C0000202800002090B589B098
:1003100002AFB9607A600F217B18021C1A707B68EB
:100320000A337B617B181B7899B27B689CB27B692E
:10033000BA6806480093230001F03EF903003B61D0
:100340003B691800BD4607B090BDC0463000002094
:1003500090B589B002AFB9607A600F217B18021C9A
:100360001A707B680A337B617B181B780122134368
:10037000DBB299B27B689CB27B69BA68054800938E
:10038000230001F021FA03003B613B691800BD46E0
:1003900007B090BD3000002080B582B000AF3B1D9B
:1003A00000221A80FB1C0C221A70FB1C012219006F
:1003B0006C20FFF7ABFF3B1D022219006C20FFF7FA
:1003C000C7FF3B1D1B781B021AB23B1D5B781BB29B
:1003D00013431AB2BB1D1A80BB1D1B881800BD46F3
:1003E00002B080BD80B582B000AF0C4B5A690B4B98
:1003F00001210A435A61094B5B69012213407B606A
:100400007B68002200210A2000F060FD0A2000F035
:1004100072FDC046BD4602B080BDC046001002401D
:1004200080B586B000AF3B1D180014231A000021D0
:1004300003F090FC154B5A69144B802189020A4342
:100440005A61124B5A6980239B0213403B603B6800
:100450009023DB0500223021180000F0DFFF3B1D58
:1004600030221A603B1D01225A603B1D00229A6017
:100470003B1D0022DA603A1D9023DB0511001800B5
:1004800000F05CFEC046BD4606B080BD00100240D4
:1004900080B500AF1B4B1C4A1A601A4B1B4A5A60AE
:1004A000184B00229A60174B0122DA60154B00228C
:1004B0001A61144B00225A61124B00229A61114BAF
:1004C0000022DA610F4B00221A620E4B180000F076
:1004D000DDFF031E01D000F03CF90A4B002118009B
:1004E00001F030FD031E01D000F033F9054B00216F
:1004F000180001F073FD031E01D000F02AF9C04678
:10050000BD4680BD30000020005400401A09102074
:1005100090B58BB000AF786014243B1918001423F9
:100520001A00002103F016FC7B681B68304A9342D6
:1005300059D1304B5A692F4B802189020A435A61A5
:100540002C4B5A6980239B0213403B613B693B194A
:10055000C022D2001A6021007B1812225A607B1838
:1005600000229A607B180322DA607B1804221A6149
:100570007A189023DB051100180000F0DFFD1D4BF9
:10058000DA691C4B802189030A43DA61194BDA6965
:1005900080239B031340FB60FB68174B174A1A60CC
:1005A000154B00225A60144B00229A60124B802295
:1005B000DA60114B00221A610F4B00225A610E4B78
:1005C00000229A610C4B0022DA610B4B180000F0FC
:1005D000AFFC031E01D000F0BCF87B68064ADA636A
:1005E000054B7A685A62C046BD460BB090BDC04606
:1005F00000540040001002408400002030000240FF
:1006000090B583B000AF00F02DFB00F03EF8FFF78F
:1006100007FFFFF7E7FEFFF73BFF00F0EDF800F004
:100620007BFA00F041F900F0C9F99023DB050122C3
:100630001021180000F0F2FE9023DB05012220219A
:10064000180000F0EBFEFFF74BFEBC1DFFF7A4FE09
:1006500003002380BB1D1A88FA239B009A429B410A
:100660005B42DBB21A009023DB052021180000F06A
:10067000D5FE9023DB051021180000F0ECFEFA23D4
:100680009B00180000F052FBDFE790B595B000AF7B
:1006900020243B19180030231A00002103F05AFBD4
:1006A0001023FB18180010231A00002103F052FB3E
:1006B0003B00180010231A00002103F04BFB21001F
:1006C0007B1802221A607B180122DA607B18102244
:1006D0001A617B1802221A627B1800225A627B1868
:1006E000A02292039A627B180022DA627B1818001B
:1006F00001F0C0FC031E01D000F02BF810217B1884
:1007000007221A607B1802225A607B1800229A6026
:100710007B180022DA607B180121180001F0C4FF69
:10072000031E01D000F015F83B0021221A603B00A7
:1007300000229A603B001022DA603B00180002F0B1
:10074000F7F8031E01D000F004F8C046BD4615B00E
:1007500090BD80B500AF72B6C046FEE780B582B0EE
:1007600000AF0F4B9A690E4B01210A439A610C4B63
:100770009B69012213407B607B68094BDA69084B57
:10078000802149050A43DA61054BDA6980235B055C
:1007900013403B603B68C046BD4602B080BDC046CA
:1007A0000010024080B500AFFEE780B500AFFEE765
:1007B00080B500AFC046BD4680BD80B500AFC04625
:1007C000BD4680BD80B500AF00F094FAC046BD467E
:1007D00080BD000080B500AF034B180000F0F0FBB7
:1007E000C046BD4680BDC0468400002080B500AF35
:1007F000C046BD4680BD000080B586B000AF08236E
:10080000FB18180010231A00002103F0A3FA3B0084
:10081000180008231A00002103F09CFA1F4B204AFD
:100820001A601E4B00225A601C4B00229A601B4B20
:100830001C4ADA60194B00221A61184B00225A61D7
:10084000164B00229A61154B180002F03FF9031E67
:1008500001D0FFF77EFF08217B18802252011A6029
:100860007A180E4B1100180002F09EFA031E01D0F8
:10087000FFF76FFF3B0000221A603B0000225A6026
:100880003A00064B1100180002F048FE031E01D08A
:10089000FFF75FFFC046BD4606B080BDC800002020
:1008A000002C0140FFFF000080B58EB000AF282370
:1008B000FB18180010231A00002103F04BFA202324
:1008C000FB18180008231A00002103F043FA3B1D0F
:1008D00018001C231A00002103F03CFA344B354A5F
:1008E0001A60334B00225A60314B00229A60304B21
:1008F000314ADA602E4B00221A612D4B00229A6198
:100900002B4B180002F0E2F8031E01D0FFF721FF85
:1009100028217B18802252011A607A18244B11007A
:10092000180002F041FA031E01D0FFF712FF204B1E
:10093000180002F01BF9031E01D0FFF70AFF202167
:100940007B1800221A607B1800225A607A18184B14
:100950001100180002F0E2FD031E01D0FFF7F9FEBE
:100960003B1D60221A603B1D00225A603B1D002285
:100970009A603B1D00221A61391D0D4B00221800A0
:1009800002F04CF9031E01D0FFF7E3FE391D084BBE
:100990000422180002F042F9031E01D0FFF7D9FE2D
:1009A000034B180000F07AF8C046BD460EB080BD7B
:1009B0001001002000040040FFFF000080B500AFE0
:1009C0000E4B0F4A1A600D4B00225A600B4B00224F
:1009D0009A600A4B0B4ADA60084B00221A61074BF7
:1009E00000229A61054B180002F070F8031E01D036
:1009F000FFF7AFFEC046BD4680BDC046580100208F
:100A000000200040FFFF000080B586B000AF786096
:100A10007B681B681D4A93420ED11D4B9A691C4B83
:100A2000802109010A439A61194B9A6980231B01AD
:100A300013407B617B6924E07B681B68154A934205
:100A40000CD1134BDA69124B02210A43DA61104BC5
:100A5000DB69022213403B613B6912E07B681B6843
:100A60000D4A93420DD10A4BDA69094B80214900A6
:100A70000A43DA61064BDA6980235B001340FB60AE
:100A8000FB68C046BD4606B080BDC046002C014094
:100A900000100240000400400020004090B589B0E2
:100AA00000AF78600C243B19180014231A000021B1
:100AB00003F050F97B681B68154A934224D1154B0B
:100AC0005A69144B802189020A435A61114B5A69B1
:100AD00080239B021340BB60BB6821007B18C022AF
:100AE0001A607B1802225A607B1800229A607B18D9
:100AF0000022DA607B1801221A617A189023DB0544
:100B00001100180000F01AFBC046BD4609B090BDA8
:100B1000000400400010024080B500AF144B154A9D
:100B20001A60134B962212025A60114B00229A60EF
:100B30000F4B0022DA600E4B00221A610C4B0C2284
:100B40005A610B4B00229A61094B0022DA61084B73
:100B500000221A62064B00225A62054B180002F06E
:100B60002FFD031E01D0FFF7F4FDC046BD4680BD3A
:100B7000A00100200038014090B58BB000AF786034
:100B800014243B19180014231A00002103F0E2F882
:100B90007B681B681C4A934232D11C4B9A691B4BE1
:100BA0008021C9010A439A61184B9A698023DB01AD
:100BB00013403B613B69154B5A69144B80218902F4
:100BC0000A435A61114B5A6980239B021340FB6010
:100BD000FB6821007B180C221A607B1802225A60E5
:100BE0007B1800229A607B180322DA607B180122AE
:100BF0001A617A189023DB051100180000F09EFAA4
:100C0000C046BD460BB090BD003801400010024008
:100C10000D488546FFF7EAFD0C480D490D4A0023B3
:100C200002E0D458C4500433C4188C42F9D30A4AA1
:100C30000A4C002301E013600432A242FBD303F00C
:100C400065F8FFF7DDFCFEE7001000200000002043
:100C50000C000020BC3D00080C0000202C020020ED
:100C6000FEE7000080B500AF074B1A68064B102165
:100C70000A431A60032000F009F8FFF76FFD002314
:100C80001800BD4680BDC0460020024090B583B02C
:100C900000AF7860144B1C68144B1B781900FA23C2
:100CA0009800FFF731FA030019002000FFF72CFA33
:100CB0000300180000F02FF9031E01D001230FE0FC
:100CC0007B68032B0BD8796801235B420022180054
:100CD00000F0FCF8064B7A681A60002300E001235C
:100CE0001800BD4603B090BD0000002008000020A1
:100CF0000400002080B500AF054B1B781A00054B9F
:100D00001B68D218034B1A60C046BD4680BDC04662
:100D1000080000202802002080B500AF024B1B68AD
:100D20001800BD4680BDC0462802002080B584B0B2
:100D300000AF7860FFF7F0FF0300BB607B68FB60EB
:100D4000FB68013305D00A4B1B781A00FB689B181F
:100D5000FB60C046FFF7E0FF0200BB68D31AFA68E9
:100D60009A42F7D8C046C046BD4604B080BDC046D2
:100D70000800002080B582B000AF0200FB1D1A7091
:100D8000FB1D1B787F2B09D8FB1D1B781A001F2326
:100D90001A40044B012191400A001A60C046BD462A
:100DA00002B080BD00E100E090B583B000AF02006A
:100DB0003960FB1D1A70FB1D1B787F2B28D82F4A2A
:100DC000FB1D1B785BB29B08C0339B009B58FA1D30
:100DD0001278110003220A40D200FF2191400A003C
:100DE000D2431A4011003B689B01FF221A40FB1DB1
:100DF0001B78180003230340DB009A401F48FB1DAB
:100E00001B785BB29B080A43C0339B001A5031E049
:100E10001B4AFB1D1B7819000F230B40083B9B0846
:100E200006339B00D31804331B68FA1D1278110097
:100E300003220A40D200FF2191400A00D2431A4007
:100E400011003B689B01FF221A40FB1D1B78180014
:100E500003230340DB009A400948FB1D1B781C005C
:100E60000F232340083B9B080A4306339B00C3180B
:100E700004331A60C046BD4603B090BD00E100E0F7
:100E800000ED00E080B582B000AF78607B685A1E4C
:100E900080235B049A4201D3012310E00A4B7A6855
:100EA000013A5A6001235B4203211800FFF77CFFDF
:100EB000054B00229A60044B07221A600023180099
:100EC000BD4602B080BDC04610E000E080B584B0F1
:100ED00000AFB9607A600F217B18021C1A70BA68E3
:100EE0007B181B785BB211001800FFF75DFFC0464E
:100EF000BD4604B080BD80B582B000AF0200FB1DCE
:100F00001A70FB1D1B785BB21800FFF733FFC04659
:100F1000BD4602B080BD80B582B000AF78607B680E
:100F20001800FFF7AFFF03001800BD4602B080BDF8
:100F300080B584B000AF78600023FB607B68002B35
:100F400001D1012336E07B682122022199547B687C
:100F50001B681B68FB60FB68184A1340FB607B68DA
:100F60005A687B689B681A437B68DB681A437B6816
:100F70001B691A437B685B691A437B689B691A4348
:100F80007B68DB691343FA681343FB607B681B686B
:100F9000FA681A607B68180000F0B4F87B680022D9
:100FA0009A637B682122012199547B6820220021C9
:100FB000995400231800BD4604B080BD0FC0FFFF48
:100FC00080B584B000AF78607B68DB6B1B68FB602A
:100FD0007B681B681B68BB607B681B6C04229A40A3
:100FE0001300FA68134024D0BB680422134020D0B9
:100FF0007B681B681B682022134007D17B681B6835
:101000001A687B681B6804218A431A607B681A6C23
:101010007B68DB6B042191400A005A607B68DB6AC5
:10102000002B00D16AE07B68DB6A7A681000984781
:1010300064E07B681B6C02229A401300FA6813403C
:101040002BD0BB680222134027D07B681B681B682B
:10105000202213400BD17B681B681A687B681B68D1
:101060000A218A431A607B682122012199547B68F6
:101070001A6C7B68DB6B022191400A005A607B6826
:101080002022002199547B689B6A002B36D07B6814
:101090009B6A7A681000984730E07B681B6C0822D6
:1010A0009A401300FA68134028D0BB680822134006
:1010B00024D07B681B681A687B681B680E218A43F2
:1010C0001A607B681A6C7B68DB6B012191400A0017
:1010D0005A607B6801229A637B682122012199541E
:1010E0007B682022002199547B681B6B002B05D064
:1010F0007B681B6B7A6810009847FFE7C046BD46C7
:1011000004B080BD80B582B000AF78607B681B689A
:10111000084A9446634414211800FEF7F5FF0300C3
:101120009A007B681A647B68034ADA63C046BD464E
:1011300002B080BDF8FFFDBF0000024080B586B060
:1011400000AF7860396000237B614FE13B681B682A
:1011500001217A6991400A001340FB60FB68002B73
:1011600000D140E13B685B6803221340012B05D0AE
:101170003B685B6803221340022B30D17B689B687D
:101180003B617B695B0003229A401300DA433B69B1
:1011900013403B613B68DA687B695B009A4013004F
:1011A0003A6913433B617B683A699A607B685B6884
:1011B0003B6101227B699A401300DA433B6913408B
:1011C0003B613B685B681B0901221A407B699A40BE
:1011D00013003A6913433B617B683A695A603B6884
:1011E0005B6803221340032B17D07B68DB683B61ED
:1011F0007B695B0003229A401300DA433B6913408A
:101200003B613B689A687B695B009A4013003A69CE
:1012100013433B617B683A69DA603B685B68032291
:101220001340022B23D17B69DA087B6808329200D5
:10123000D3583B617B69072213409B000F229A40E1
:101240001300DA433B6913403B613B681A697B69D1
:1012500007210B409B009A4013003A6913433B61FE
:101260007B69DA087B68083292003969D1507B6863
:101270001B683B617B695B0003229A401300DA43E1
:101280003B6913403B613B685B6803221A407B6902
:101290005B009A4013003A6913433B617B683A69EB
:1012A0001A603B685A68C0239B02134000D19AE041
:1012B000544B9A69534B01210A439A61514B9B69E4
:1012C00001221340BB60BB684F4A7B699B08023315
:1012D0009B009B583B617B69032213409B000F22BC
:1012E0009A401300DA433B6913403B617A689023CC
:1012F000DB059A4213D07B68444A93420DD07B6849
:10130000434A934207D07B68424A934201D1032368
:1013100006E0052304E0022302E0012300E00023AD
:101320007A6903210A40920093403A6913433B6172
:1013300035497B699B0802339B003A695A50364B0A
:101340009B683B61FB68DA433B6913403B613B6848
:101350005A6880235B03134003D03A69FB68134348
:101360003B612D4B3A699A602B4BDB683B61FB6814
:10137000DA433B6913403B613B685A6880239B0317
:10138000134003D03A69FB6813433B61224B3A692F
:10139000DA60214B5B683B61FB68DA433B691340D1
:1013A0003B613B685A6880239B02134003D03A6933
:1013B000FB6813433B61184B3A695A60164B1B6834
:1013C0003B61FB68DA433B6913403B613B685A6809
:1013D00080235B02134003D03A69FB6813433B61EF
:1013E0000D4B3A691A607B6901337B613B681A686F
:1013F0007B69DA40131E00D0A8E6C046C046BD4651
:1014000006B080BD0010024000000140000400480A
:1014100000080048000C00480004014080B582B07C
:1014200000AF786008001100BB1C021C1A807B1CF6
:101430000A1C1A707B1C1B78002B04D0BB1C1A885A
:101440007B689A6103E0BB1C1A887B689A62C0467D
:10145000BD4602B080BD80B584B000AF78600A00A0
:10146000BB1C1A807B685B69FB60BB1C1B88FA682D
:1014700013401A04FB68DB43B91C09880B401A436C
:101480007B689A61C046BD4604B080BD80B582B01D
:1014900000AF78607B68002B01D1012382E07B687C
:1014A00041229B5CDBB2002B07D17B6840220021EC
:1014B00099547B681800FFF72BF87B6841222421A0
:1014C00099547B681B681A687B681B6801218A43F2
:1014D0001A607B685A687B681B6834490A401A6145
:1014E0007B681B689A687B681B6831490A409A6070
:1014F0007B68DB68012B08D17B689A687B681B6876
:10150000802109020A439A6007E07B689A687B6839
:101510001B68842109020A439A607B68DB68022BFE
:1015200004D17B681B68802212015A607B681B68AB
:101530005A687B681B681F490A435A607B681B68AE
:10154000DA687B681B681A490A40DA607B681A69A6
:101550007B685B691A4311007B689B691A027B6890
:101560001B680A43DA607B68D9697B681A6A7B6802
:101570001B680A431A607B681B681A687B681B68D3
:1015800001210A431A607B6800225A647B68412269
:10159000202199547B6800221A637B684222002133
:1015A000995400231800BD4602B080BDFFFFFFF034
:1015B000FF7FFFFF0080000290B589B002AFF860A6
:1015C00008007A6019000A23FB18021C1A800823FD
:1015D000FB180A1C1A80FB6841229B5CDBB2202BA3
:1015E00000D0E7E0FB6840229B5C012B01D1022385
:1015F000E1E0FB68402201219954FFF78DFB0300D5
:101600007B6180231902F8687B690093192301220A
:1016100000F004FA031E01D00123CCE0FB68412254
:1016200021219954FB68422210219954FB68002221
:101630005A64FB687A685A62FB680822BA181288F2
:101640005A85FB6800225A63FB685B8D9BB2FF2BB7
:1016500011D9FB68FF221A85FB681B8DDAB2802343
:101660005C040A23FB181988F868554B0093230083
:1016700000F02EFC75E0FB685B8D9AB2FB681A8562
:10168000FB681B8DDAB280239C040A23FB1819889F
:10169000F8684B4B0093230000F01AFC61E07A6974
:1016A000B96AFB68180000F007FA031E01D0012395
:1016B00081E0FB685B6A1A78FB681B689A62FB68CA
:1016C0005B6A5A1CFB685A62FB685B8D9BB2013BEC
:1016D0009AB2FB685A85FB681B8D013B9AB2FB6886
:1016E0001A85FB685B8D9BB2002B3AD0FB681B8D83
:1016F000002B36D1BA6AF8687B6900931300002288
:10170000802100F08BF9031E01D0012353E0FB6818
:101710005B8D9BB2FF2B11D9FB68FF221A85FB68FA
:101720001B8DDAB280235C040A23FB181988F86841
:1017300000230093230000F0CBFB12E0FB685B8DDD
:101740009AB2FB681A85FB681B8DDAB280239C0471
:101750000A23FB181988F86800230093230000F07F
:10176000B7FBFB685B8D9BB2002B98D17A69B96A95
:10177000FB68180000F0E6F9031E01D001231AE00F
:10178000FB681B682022DA61FB681B685A68FB68EB
:101790001B680C490A405A60FB6841222021995479
:1017A000FB68422200219954FB6840220021995491
:1017B000002300E002231800BD4607B090BDC046DC
:1017C0000020008000E800FE90B589B002AFF8600C
:1017D00008007A6019000A23FB18021C1A800823EB
:1017E000FB180A1C1A80FB6841229B5CDBB2202B91
:1017F00000D0E8E0FB6840229B5C012B01D1022372
:10180000E2E0FB68402201219954FFF785FA0300CA
:101810007B6180231902F8687B69009319230122F8
:1018200000F0FCF8031E01D00123CDE0FB6841224B
:1018300022219954FB68422210219954FB6800220E
:101840005A64FB687A685A62FB680822BA181288E0
:101850005A85FB6800225A63FB685B8D9BB2FF2BA5
:1018600011D9FB68FF221A85FB681B8DDAB2802331
:101870005C040A23FB181988F868554B0093230071
:1018800000F026FB76E0FB685B8D9AB2FB681A8558
:10189000FB681B8DDAB280239C040A23FB1819888D
:1018A000F8684B4B0093230000F012FB62E07A696A
:1018B000B96AFB68180000F089F9031E01D0012302
:1018C00082E0FB681B685A6AFB685B6AD2B21A70D6
:1018D000FB685B6A5A1CFB685A62FB681B8D013B04
:1018E0009AB2FB681A85FB685B8D9BB2013B9AB28A
:1018F000FB685A85FB685B8D9BB2002B3AD0FB6876
:101900001B8D002B36D1BA6AF8687B6900931300EF
:101910000022802100F082F8031E01D0012353E051
:10192000FB685B8D9BB2FF2B11D9FB68FF221A85E8
:10193000FB681B8DDAB280235C040A23FB1819882C
:10194000F86800230093230000F0C2FA12E0FB685D
:101950005B8D9AB2FB681A85FB681B8DDAB2802317
:101960009C040A23FB181988F868002300932300BD
:1019700000F0AEFAFB685B8D9BB2002B97D17A69C1
:10198000B96AFB68180000F0DDF8031E01D00123DE
:101990001AE0FB681B682022DA61FB681B685A6842
:1019A000FB681B680B490A405A60FB6841222021F2
:1019B0009954FB68422200219954FB68402200217F
:1019C0009954002300E002231800BD4607B090BDE3
:1019D0000024008000E800FE80B582B000AF78608F
:1019E0007B681B689B6902221340022B03D17B6832
:1019F0001B6800229A627B681B689B690122134066
:101A0000012B07D07B681B689A697B681B680121E2
:101A10000A439A61C046BD4602B080BD80B584B01D
:101A200000AFF860B9603B60FB1D1A7030E03B68A6
:101A300001332DD0FFF770F90200BB69D31A3A6861
:101A40009A4202D33B68002B22D1FB681B689B693A
:101A5000BA681340BA68D31A5A425341DBB21A002B
:101A6000FB1D1B789A4213D1FB685B6C20221A4342
:101A7000FB685A64FB68412220219954FB6842228A
:101A800000219954FB6840220021995401230FE062
:101A9000FB681B689B69BA681340BA68D31A5A423C
:101AA0005341DBB21A00FB1D1B789A42BFD00023C2
:101AB0001800BD4604B080BD80B584B000AFF860AA
:101AC000B9607A6032E07A68B968FB68180000F0A3
:101AD000FFF8031E01D0012330E0BB68013325D09D
:101AE000FFF71AF902007B68D31ABA689A4202D348
:101AF000BB68002B1AD1FB681B689B69022213404C
:101B0000022B13D0FB685B6C20221A43FB685A64DB
:101B1000FB68412220219954FB68422200219954FC
:101B2000FB68402200219954012307E0FB681B68F1
:101B30009B6902221340022BC5D100231800BD4629
:101B400004B080BD80B584B000AFF860B9607A6041
:101B50002FE07A68B968FB68180000F0B9F8031E36
:101B600001D001232DE0FFF7D7F802007B68D31ADC
:101B7000BA689A4202D3BB68002B1AD1FB681B6873
:101B80009B6920221340202B13D0FB685B6C202222
:101B90001A43FB685A64FB68412220219954FB6870
:101BA000422200219954FB684022002199540123CC
:101BB00007E0FB681B689B6920221340202BC8D1DB
:101BC00000231800BD4604B080BD000080B584B07D
:101BD00000AFF860B9607A606BE07A68B968FB685A
:101BE000180000F075F8031E01D0012369E0FB68BE
:101BF0001B689B6920221340202B38D1FB681B688F
:101C00009B6904221340042B05D1FB681B8D002B1C
:101C100001D0002355E0FB681B689B69102213402C
:101C2000102B07D1FB681B681022DA61FB680422C5
:101C30005A6402E0FB6800225A64FB681B68202299
:101C4000DA61FB681B685A68FB681B681F490A4019
:101C50005A60FB68412220219954FB6842220021EE
:101C60009954FB68402200219954012329E0FFF791
:101C700053F802007B68D31ABA689A4202D3BB6851
:101C8000002B16D1FB681B689B6904221340042BB0
:101C90000FD0FB685B6C20221A43FB685A64FB6818
:101CA000412220219954FB684022002199540123AC
:101CB00007E0FB681B689B6904221340042B8CD14E
:101CC00000231800BD4604B080BDC04600E800FEF9
:101CD00090B58BB000AFF860B9607A602723FB182D
:101CE00000221A70FB681B689B69BB6100233B6282
:101CF0007B68FB61BB691022134000D182E0FB6866
:101D00001B681022DA6160E027243B193A19127827
:101D10001A70BB68013358D0FEF7FEFF0200FB6962
:101D2000D31ABA689A4206D33B193A1912781A7034
:101D3000BB68002B49D1FB681B685A688023DB0114
:101D400013407B6113203B18FA684221525C1A70E1
:101D5000FB681B689A6980231B021A4080231B02C0
:101D60009A4226D17A698023DB019A4221D03B181E
:101D70001B78202B1DD0FB681B685A68FB681B680A
:101D80008021C9010A435A60FEF7C6FF0300FB61C8
:101D90000FE0FEF7C1FF0200FB69D31A192B08D927
:101DA0003B6A202213433B622723FB1801221A704F
:101DB0000BE0FB681B689B692022134027217A18DF
:101DC000791809781170202BE3D1FB681B689B6997
:101DD00020221340202B04D02723FB181B78002B34
:101DE00092D02723FB181B78002B03D1FB681B68BC
:101DF0002022DA613B6A042213433B622723FB184B
:101E000001221A70FB681B689B69BB61BA69802359
:101E10005B0013400CD03B6A012213433B62FB681A
:101E20001B6880225200DA612723FB1801221A70F6
:101E3000BA698023DB0013400CD03B6A08221343AD
:101E40003B62FB681B688022D200DA612723FB1803
:101E500001221A70BA6980239B0013400CD03B6AA0
:101E6000022213433B62FB681B6880229200DA6106
:101E70002723FB1801221A702723FB181B78002B3D
:101E80001DD0FB681800FFF7A7FDFB681B685A68A8
:101E9000FB681B680D490A405A60FB685A6C3B6A34
:101EA0001A43FB685A64FB68412220219954FB685D
:101EB000422200219954FB68402200219954272393
:101EC000FB181B781800BD460BB090BD00E800FE63
:101ED00090B587B000AFF860080011007B600A245D
:101EE0003B19021C1A8009203B180A1C1A703B1966
:101EF0001B889B059A0D3B181B781904FF231B04B4
:101F00000B401A437B681A43BB6A13435B005B08B0
:101F10007B61FB681B685B68BA6A510D8022D20046
:101F20000A4007490A43D2431A401100FB681B6864
:101F30007A690A435A60C046BD4607B090BDC046A4
:101F4000FF63FF0380B582B000AF786039607B68C3
:101F500041229B5CDBB2202B38D17B6840229B5C0A
:101F6000012B01D1022332E07B68402201219954E8
:101F70007B684122242199547B681B681A687B681E
:101F80001B6801218A431A607B681B681A687B689A
:101F90001B6811490A401A607B681B6819687B68D6
:101FA0001B683A680A431A607B681B681A687B687A
:101FB0001B6801210A431A607B6841222021995441
:101FC0007B68402200219954002300E0022318007E
:101FD000BD4602B080BDC046FFEFFFFF80B584B0B4
:101FE00000AF786039607B6841229B5CDBB2202BBC
:101FF00039D17B6840229B5C012B01D1022333E065
:102000007B684022012199547B6841222421995404
:102010007B681B681A687B681B6801218A431A6009
:102020007B681B681B68FB60FB68114A1340FB6000
:102030003B681B02FA681343FB607B681B68FA6805
:102040001A607B681B681A687B681B6801210A4359
:102050001A607B684122202199547B68402200212C
:102060009954002300E002231800BD4604B080BD4F
:10207000FFF0FFFF80B588B000AF78607B68002B71
:1020800001D1012301E37B681B680122134000D1C9
:102090008DE0C34B5B680C221340042B0ED0C04B69
:1020A0005B680C221340082B16D1BD4B5A68802365
:1020B0005B021A4080235B029A420DD1B84B1A682A
:1020C00080239B02134000D170E07B685B68002B8B
:1020D00000D06BE00123D8E27B685B68012B07D15D
:1020E000AF4B1A68AE4B802149020A431A602FE0B9
:1020F0007B685B68002B0CD1A94B1A68A84BA949D7
:102100000A401A60A64B1A68A54BA7490A401A60F4
:102110001EE07B685B68052B0ED1A14B1A68A04BB3
:102120008021C9020A431A609D4B1A689C4B80218A
:1021300049020A431A600BE0994B1A68984B994977
:102140000A401A60964B1A68954B97490A401A60E4
:102150007B685B68002B14D0FEF7DEFD0300BB61DB
:1021600008E0FEF7D9FD0200BB69D31A642B01D940
:1021700003238AE28A4B1A6880239B021340F0D023
:1021800015E0FEF7C9FD0300BB6108E0FEF7C4FDE2
:102190000200BB69D31A642B01D9032375E2804B7B
:1021A0001A6880239B021340F0D100E0C0467B6890
:1021B0001B680222134000D169E0794B5B680C2256
:1021C00013400BD0764B5B680C221340082B1CD1BC
:1021D000734B5A6880235B02134016D1704B1B6807
:1021E0000222134005D07B68DB68012B01D001235C
:1021F0004BE26B4B1B68F822934319007B681B6909
:10220000DA00674B0A431A6041E07B68DB68002B09
:1022100024D0634B1A68624B01210A431A60FEF70F
:102220007BFD0300BB6108E0FEF776FD0200BB69A1
:10223000D31A022B01D9032327E2594B1B68022230
:102240001340F1D0564B1B68F822934319007B686A
:102250001B69DA00524B0A431A6018E0504B1A68A7
:102260004F4B01218A431A60FEF756FD0300BB6104
:1022700008E0FEF751FD0200BB69D31A022B01D919
:10228000032302E2464B1B6802221340F1D17B6814
:102290001B680822134036D07B68DB69002B19D0FD
:1022A0003F4B5A6A3E4B01210A435A62FEF734FD06
:1022B0000300BB6108E0FEF72FFD0200BB69D31AE3
:1022C000022B01D90323E0E1354B5B6A0222134064
:1022D000F1D018E0324B5A6A314B01218A435A62DD
:1022E000FEF71AFD0300BB6108E0FEF715FD0200D2
:1022F000BB69D31A022B01D90323C6E1284B5B6AC1
:1023000002221340F1D17B681B680422134000D1E4
:10231000B4E01F203B1800221A70214BDA69802399
:102320005B05134010D11E4BDA691D4B8021490516
:102330000A43DA611A4BDA6980235B051340FB60BC
:10234000FB683B1801221A70184B1A6880235B0047
:1023500013401AD1154B1A68144B802149000A43C7
:102360001A60FEF7D9FC0300BB6108E0FEF7D4FC5D
:102370000200BB69D31A642B01D9032385E10B4BFF
:102380001A6880235B001340F0D07B689B68012BA8
:102390000ED1034B1A6A024B01210A431A6235E03F
:1023A00000100240FFFFFEFFFFFFFBFF0070004038
:1023B0007B689B68002B0CD1B64B1A6AB54B012188
:1023C0008A431A62B34B1A6AB24B04218A431A62D7
:1023D0001CE07B689B68052B0CD1AE4B1A6AAD4B99
:1023E00004210A431A62AB4B1A6AAA4B01210A4321
:1023F0001A620BE0A74B1A6AA64B01218A431A62A4
:10240000A44B1A6AA34B04218A431A627B689B6817
:10241000002B14D0FEF780FC0300BB6109E0FEF73F
:102420007BFC0200BB69D31A9B4A934201D9032368
:102430002BE1984B1B6A02221340F0D013E0FEF709
:102440006BFC0300BB6109E0FEF766FC0200BB69A0
:10245000D31A914A934201D9032316E18D4B1B6A8B
:1024600002221340F0D11F23FB181B78012B05D14A
:10247000884BDA69874B89490A40DA617B681B68B7
:102480001022134063D07B685B69012B2AD1814BFA
:102490005A6B804B04210A435A637E4B5A6B7D4B27
:1024A00001210A435A63FEF737FC0300BB6108E0D1
:1024B000FEF732FC0200BB69D31A022B01D90323B9
:1024C000E3E0744B5B6B02221340F1D0714B5B6B0A
:1024D000F822934319007B689B69DA006D4B0A432D
:1024E0005A6334E07B685B69053311D1694B5A6BE1
:1024F000684B04218A435A63664B5B6BF822934313
:1025000019007B689B69DA00624B0A435A631EE03C
:10251000604B5A6B5F4B04210A435A635D4B5A6B05
:102520005C4B01218A435A63FEF7F6FB0300BB6153
:1025300008E0FEF7F1FB0200BB69D31A022B01D9B8
:102540000323A2E0534B5B6B02221340F1D17B6863
:102550001B6A002B00D197E04E4B5B680C221340A6
:10256000082B00D16BE07B681B6A022B4CD1494BD6
:102570001A68484B4A490A401A60FEF7CDFB03002F
:10258000BB6108E0FEF7C8FB0200BB69D31A022B4F
:1025900001D9032379E03F4B1A6880239B04134041
:1025A000F0D13C4BDB6A0F22934319007B68DA6A57
:1025B000384B0A43DA62374B5B683A4A13401900DA
:1025C0007B689A6A7B685B6A1A43324B0A435A609B
:1025D000304B1A682F4B802149040A431A60FEF7DA
:1025E0009BFB0300BB6108E0FEF796FB0200BB69A2
:1025F000D31A022B01D9032347E0264B1A68802304
:102600009B041340F0D03FE0224B1A68214B244931
:102610000A401A60FEF780FB0300BB6108E0FEF78A
:102620007BFB0200BB69D31A022B01D903232CE0E8
:10263000184B1A6880239B041340F0D124E07B6878
:102640001B6A012B01D101231FE0124B5B687B61E8
:10265000104BDB6A3B617A6980235B021A407B681E
:102660005B6A9A420ED13B690F221A407B68DB6A93
:102670009A4207D17A69F0239B031A407B689B6AD0
:102680009A4201D0012300E000231800BD4608B0A3
:1026900080BDC0460010024088130000FFFFFFEF1E
:1026A000FFFFFFFEFFFFC2FF80B584B000AF786080
:1026B00039607B68002B01D10123B3E05B4B1B68C1
:1026C000012213403A689A4211D9584B1B680122E3
:1026D00093431900554B3A680A431A60534B1B68E1
:1026E000012213403A689A4201D001239AE07B68A4
:1026F0001B680222134015D07B681B68042213401C
:1027000006D04B4B5A684A4BE021C9000A435A6035
:10271000474B5B68F022934319007B689A68444BEF
:102720000A435A607B681B680122134040D07B68D3
:102730005B68012B07D13E4B1A6880239B02134034
:1027400014D101236EE07B685B68022B07D1384B04
:102750001A6880239B04134008D1012362E0344BA4
:102760001B680222134001D101235BE0304B5B6800
:102770000322934319007B685A682D4B0A435A6021
:10278000FEF7CAFA0300FB6009E0FEF7C5FA020093
:10279000FB68D31A274A934201D9032342E0244B12
:1027A0005B680C221A407B685B689B009A42ECD104
:1027B0001E4B1B68012213403A689A4211D21B4BF0
:1027C0001B68012293431900184B3A680A431A60A8
:1027D000164B1B68012213403A689A4201D001232C
:1027E00020E07B681B680422134009D0104B5B6813
:1027F000114A134019007B68DA680D4B0A435A608E
:1028000000F020F801000A4B5B681B090F221340FF
:102810000A4AD35C0A00DA40094B1A600320FEF72B
:1028200035FA00231800BD4604B080BD00200240E8
:102830000010024088130000FFF8FFFF7C3D0008F5
:102840000000002080B586B000AF0023FB600023AD
:10285000BB6000237B6100237B6000233B61204B36
:102860005B68FB60FB680C221340042B02D0082B32
:1028700003D02CE01B4B3B612CE0FB689B0C0F2230
:102880001340194AD35C7B60154BDB6A0F2213405F
:10289000164AD35CBB60FA6880235B02134009D000
:1028A000B9681048FDF730FC03001A007B685343F9
:1028B0007B6109E079680A005201521A93019B1A60
:1028C000DB005B181B027B617B693B6102E0054B0F
:1028D0003B61C0463B691800BD4606B080BDC0469E
:1028E0000010024000127A00943D0008A43D000848
:1028F00080B500AF024B1B681800BD4680BDC046C6
:102900000000002080B500AFFFF7F2FF0100064B8A
:102910005B681B0A07221340044AD35CD9400B00B2
:102920001800BD4680BDC046001002408C3D000826
:1029300080B586B000AF786000233B610023FB6068
:102940007B681A6880235B02134000D18EE0172059
:102950003B1800221A70574BDA6980235B0513403D
:1029600010D1544BDA69534B802149050A43DA618F
:10297000504BDA6980235B051340BB60BB683B1892
:1029800001221A704C4B1A6880235B0013401AD145
:10299000494B1A68484B802149000A431A60FEF7E8
:1029A000BBF903003B6108E0FEF7B6F902003B69A2
:1029B000D31A642B01D9032377E03F4B1A68802395
:1029C0005B001340F0D03B4B1A6AC0239B001340BE
:1029D000FB60FB68002B34D07B685A68C0239B00E7
:1029E0001340FA689A422CD0324B1B6A334A134088
:1029F000FB60304B1A6A2F4B802149020A431A624E
:102A00002C4B1A6A2B4B2E490A401A62294BFA6842
:102A10001A62FB680122134013D0FEF77DF9030010
:102A20003B6109E0FEF778F902003B69D31A254AB9
:102A3000934201D9032338E01E4B1B6A0222134044
:102A4000F0D01C4B1B6A1D4A134019007B685A6862
:102A5000184B0A431A621723FB181B78012B05D168
:102A6000144BDA69134B18490A40DA617B681B681A
:102A70000122134009D00F4B1B6B03229343190013
:102A80007B689A680B4B0A431A637B681B68202299
:102A9000134009D0074B1B6B1022934319007B682E
:102AA000DA68044B0A431A6300231800BD4606B0D7
:102AB00080BDC0460010024000700040FFFCFFFFD8
:102AC000FFFFFEFF88130000FFFFFFEF80B582B01D
:102AD00000AF78607B68002B01D1012342E07B6866
:102AE0003D229B5CDBB2002B07D17B683C2200219E
:102AF00099547B681800FDF787FF7B683D2202210F
:102B000099547B681A687B6804331900100000F040
:102B10001FFA7B684622012199547B683E220121DD
:102B200099547B683F22012199547B6840220121FE
:102B300099547B684122012199547B6842220121EA
:102B400099547B684322012199547B6844220121D6
:102B500099547B684522012199547B683D220121CB
:102B6000995400231800BD4602B080BD80B582B0E4
:102B700000AF78607B68002B01D1012342E07B68C5
:102B80003D229B5CDBB2002B07D17B683C220021FD
:102B900099547B68180000F039F87B683D220221C7
:102BA00099547B681A687B6804331900100000F0A0
:102BB000CFF97B684622012199547B683E2201218E
:102BC00099547B683F22012199547B68402201215E
:102BD00099547B684122012199547B68422201214A
:102BE00099547B684322012199547B684422012136
:102BF00099547B684522012199547B683D2201212B
:102C0000995400231800BD4602B080BD80B582B043
:102C100000AF7860C046BD4602B080BD80B586B0CA
:102C200000AFF860B9607A601723FB1800221A70B1
:102C3000FB683C229B5C012B01D10223ADE0FB68C9
:102C40003C22012199547B680C2B00D176E07B68F3
:102C50000C2B00D995E07B68082B4ED07B68082BA5
:102C600000D98EE07B68002B03D07B68042B21D039
:102C700087E0FB681B68BA681100180000F0D4F9FF
:102C8000FB681B689A69FB681B6808210A439A6104
:102C9000FB681B689A69FB681B6804218A439A6178
:102CA000FB681B689969BB681A69FB681B680A4363
:102CB0009A616BE0FB681B68BA681100180000F0AD
:102CC00031FAFB681B689A69FB681B68802109015F
:102CD0000A439A61FB681B689A69FB681B68314963
:102CE0000A409A61FB681B689969BB681B691A02F4
:102CF000FB681B680A439A6148E0FB681B68BA6876
:102D00001100180000F08CFAFB681B68DA69FB6898
:102D10001B6808210A43DA61FB681B68DA69FB68F3
:102D20001B6804218A43DA61FB681B68D969BB68A8
:102D30001A69FB681B680A43DA6127E0FB681B68B5
:102D4000BA681100180000F0EBFAFB681B68DA693A
:102D5000FB681B68802109010A43DA61FB681B6874
:102D6000DA69FB681B680F490A40DA61FB681B6877
:102D7000D969BB681B691A02FB681B680A43DA61E0
:102D800004E01723FB1801221A70C046FB683C229E
:102D9000002199541723FB181B781800BD4606B074
:102DA00080BDC046FFFBFFFF80B584B000AF7860F8
:102DB00039600F23FB1800221A707B683C229B5C51
:102DC000012B01D10223BCE07B683C2201219954F4
:102DD0007B683D22022199547B681B689B68BB601D
:102DE000BB6877229343BB60BB68584A1340BB6003
:102DF0007B681B68BA689A603B681B6880229201F6
:102E0000934240D080229201934200D988E08022F0
:102E10005201934200D188E080225201934200D9AE
:102E20007EE0702B18D000D97AE0602B4FD000D90B
:102E300076E0502B3BD000D972E0402B57D000D920
:102E40006EE0302B63D06BD8202B60D068D8002B7D
:102E50005DD0102B5BD063E07B6818683B68996895
:102E60003B685A683B68DB6800F038FB7B681B688E
:102E70009B68BB60BB6877221343BB607B681B68A1
:102E8000BA689A6052E07B6818683B6899683B684A
:102E90005A683B68DB6800F021FB7B681B689A6816
:102EA0007B681B688021C9010A439A603EE07B6809
:102EB00018683B6859683B68DB681A0000F094FAB0
:102EC0007B681B685021180000F0EEFA2EE07B684A
:102ED00018683B6859683B68DB681A0000F0B2FA72
:102EE0007B681B686021180000F0DEFA1EE07B683A
:102EF00018683B6859683B68DB681A0000F074FA90
:102F00007B681B684021180000F0CEFA0EE07B6859
:102F10001A683B681B681900100000F0C5FA05E04C
:102F20000F23FB1801221A7000E0C0467B683D2287
:102F3000012199547B683C22002199540F23FB18EE
:102F40001B781800BD4604B080BDC046FF00FFFFDF
:102F500080B584B000AF786039607B681B68FB6027
:102F60007B682B4A934203D07B682A4A934208D15C
:102F7000FB6870229343FB603B685B68FA6813430D
:102F8000FB607B68224A93420FD07B68214A9342C0
:102F90000BD07B68204A934207D07B681F4A93423C
:102FA00003D07B681E4A934208D1FB681D4A134038
:102FB000FB603B68DB68FA681343FB60FB688022B8
:102FC00093431A003B685B691343FB607B68FA68B4
:102FD0001A603B689A687B68DA623B681A687B68AB
:102FE0009A627B680A4A934207D07B680B4A9342F5
:102FF00003D07B680A4A934203D13B681A697B6815
:103000001A637B6801225A61C046BD4604B080BD88
:10301000002C01400004004000200040004401401A
:1030200000480140FFFCFFFF80B586B000AF78602C
:1030300039607B681B6A012293431A007B681A621D
:103040007B681B6A7B617B685B683B617B689B6913
:10305000FB60FB6870229343FB60FB680322934391
:10306000FB603B681B68FA681343FB607B690222C4
:1030700093437B613B689B687A6913437B617B6800
:10308000234A934207D07B68224A934203D07B684D
:10309000214A93420CD17B69082293437B613B68B0
:1030A000DB687A6913437B617B69042293437B610C
:1030B0007B68174A934207D07B68164A934203D035
:1030C0007B68154A934211D13B69144A13403B6116
:1030D0003B69134A13403B613B685B693A691343A0
:1030E0003B613B689B693A6913433B617B683A6982
:1030F0005A607B68FA689A613B685A687B685A63D1
:103100007B687A691A62C046BD4606B080BDC0467B
:10311000002C01400044014000480140FFFEFFFF39
:10312000FFFDFFFF80B586B000AF786039607B6837
:103130001B6A102293431A007B681A627B681B6A21
:103140007B617B685B683B617B689B69FB60FB68BC
:103150002C4A1340FB60FB682B4A1340FB603B6822
:103160001B681B02FA681343FB607B6920229343B0
:103170007B613B689B681B017A6913437B617B68B9
:10318000224A93420DD17B69802293437B613B6845
:10319000DB681B017A6913437B617B69402293439F
:1031A0007B617B68194A934207D07B68184A934237
:1031B00003D07B68174A934213D13B69164A1340E8
:1031C0003B613B69154A13403B613B685B699B006F
:1031D0003A6913433B613B689B699B003A6913431F
:1031E0003B617B683A695A607B68FA689A613B6820
:1031F0005A687B689A637B687A691A62C046BD46E2
:1032000006B080BDFF8FFFFFFFFCFFFF002C0140D9
:103210000044014000480140FFFBFFFFFFF7FFFFB4
:1032200080B586B000AF786039607B681B6A334A2E
:103230001A407B681A627B681B6A7B617B685B68EB
:103240003B617B68DB69FB60FB6870229343FB603A
:10325000FB6803229343FB603B681B68FA681343D7
:10326000FB607B69264A13407B613B689B681B02BD
:103270007A6913437B617B68224A93420DD17B6953
:10328000214A13407B613B68DB681B027A69134368
:103290007B617B691D4A13407B617B68194A9342BD
:1032A00007D07B681A4A934203D07B68194A93423D
:1032B00013D13B69184A13403B613B69174A1340DD
:1032C0003B613B685B691B013A6913433B613B68A7
:1032D0009B691B013A6913433B617B683A695A60F9
:1032E0007B68FA68DA613B685A687B68DA637B68F6
:1032F0007A691A62C046BD4606B080BDFFFEFFFF78
:10330000FFFDFFFF002C0140FFF7FFFFFFFBFFFF6A
:103310000044014000480140FFEFFFFFFFDFFFFFD7
:1033200080B586B000AF786039607B681B6A264A3A
:103330001A407B681A627B681B6A3B617B685B682A
:103340007B617B68DB69FB60FB68204A1340FB60A4
:10335000FB681F4A1340FB603B681B681B02FA684E
:103360001343FB603B691B4A13403B613B689B680E
:103370001B033A6913433B617B68174A934207D0AA
:103380007B68164A934203D07B68154A934209D161
:103390007B69144A13407B613B685B699B017A69D6
:1033A00013437B617B687A695A607B68FA68DA61EB
:1033B0003B685A687B681A647B683A691A62C0463F
:1033C000BD4606B080BDC046FFEFFFFFFF8FFFFF89
:1033D000FFFCFFFFFFDFFFFF002C01400044014026
:1033E00000480140FFBFFFFF80B586B000AFF86026
:1033F000B9607A60FB681B6A7B61FB681B6A01220B
:1034000093431A00FB681A62FB689B693B613B6946
:10341000F02293433B617B681B013A6913433B6194
:103420007B690A2293437B617A69BB6813437B61A2
:10343000FB683A699A61FB687A691A62C046BD46C0
:1034400006B080BD80B586B000AFF860B9607A6024
:10345000FB681B6A102293431A00FB681A62FB6820
:103460009B697B61FB681B6A3B617B690D4A13406A
:103470007B617B681B037A6913437B613B69A022F4
:1034800093433B61BB681B013A6913433B61FB6893
:103490007A699A61FB683A691A62C046BD4606B00D
:1034A00080BDC046FF0FFFFF80B584B000AF7860DD
:1034B00039607B689B68FB60FB6870229343FB600C
:1034C0003A68FB68134307221343FB607B68FA6882
:1034D0009A60C046BD4604B080BD000080B586B08D
:1034E00000AFF860B9607A603B60FB689B687B6105
:1034F0007B69094A13407B613B681A027B681A4367
:10350000BB6813437A6913437B61FB687A699A60ED
:10351000C046BD4606B080BDFF00FFFF80B584B049
:1035200000AF786039607B683C229B5C012B01D145
:1035300002233CE07B683C22012199547B683D22B8
:10354000022199547B681B685B68FB607B681B6881
:103550009B68BB60FB6870229343FB603B681B6801
:10356000FA681343FB607B681B68FA685A607B68E3
:103570001B68114A934204D07B681B680F4A934230
:103580000CD1BB6880229343BB603B685B68BA6820
:103590001343BB607B681B68BA689A607B683D22F6
:1035A000012199547B683C22002199540023180082
:1035B000BD4604B080BDC046002C01400004004060
:1035C00080B582B000AF78607B68002B01D1012309
:1035D00044E07B68DB6F002B07D17B6878220021F9
:1035E00099547B681800FDF7C7FA7B682422DA67D4
:1035F0007B681B681A687B681B6801218A431A6014
:103600007B68180000F030F80300012B01D1012382
:1036100024E07B685B6A002B03D07B68180000F015
:103620004BF97B681B685A687B681B680D490A4028
:103630005A607B681B689A687B681B6808218A430C
:103640009A607B681B681A687B681B6801210A43C3
:103650001A607B68180000F0E3F903001800BD460B
:1036600002B080BDFFF7FFFF80B588B000AF786083
:103670001E23FB1800221A707B689A687B681B69FE
:103680001A437B685B691A437B68DB6913437B6180
:103690007B681B681B68834A134019007B681B68A2
:1036A0007A690A431A607B681B685B687E4A13402C
:1036B00019007B68DA687B681B680A435A607B687C
:1036C0009B697B617B681B6A7A6913437B617B68BA
:1036D0001B689B68754A134019007B681B687A69F0
:1036E0000A439A60724B1B6B03221340032B0DD0CD
:1036F0001BD8022B14D018D8002B02D0012B0AD0D3
:1037000013E01F23FB1800221A7012E01F23FB187E
:1037100002221A700DE01F23FB1804221A7008E021
:103720001F23FB1808221A7003E01F23FB18102226
:103730001A70C0467B68DA6980231B029A425CD10A
:103740001F23FB181B78082B15D018DC042B0DD079
:1037500015DC002B02D0022B05D010E0FFF7D2F8C9
:103760000300BB6112E0534BBB610FE0FFF76AF847
:103770000300BB610AE080231B02BB6106E000235B
:10378000BB611E23FB1801221A70C046BB69002BC7
:1037900000D17AE0BB695A007B685B685B08D2188D
:1037A0007B685B6819001000FCF7AEFC03003B610E
:1037B0003B690F2B1CD93A6980235B029A4217D2CE
:1037C0003B699AB20E203B180F218A431A803B694D
:1037D0005B089BB20722134099B23B183A18128833
:1037E0000A431A807B681B683A181288DA604CE03A
:1037F0001E23FB1801221A7047E01F23FB181B78B9
:10380000082B15D018DC042B0DD015DC002B02D0B2
:10381000022B05D010E0FFF775F80300BB6112E042
:10382000244BBB610FE0FFF70DF80300BB610AE01A
:1038300080231B02BB6106E00023BB611E23FB1833
:1038400001221A70C046BB69002B1ED07B685B68E2
:103850005A08BB69D2187B685B6819001000FCF736
:1038600053FC03003B613B690F2B0AD93A69802363
:103870005B029A4205D23B699AB27B681B68DA60A8
:1038800003E01E23FB1801221A707B6800229A664F
:103890007B680022DA661E23FB181B781800BD46E1
:1038A00008B080BDF369FFFFFFCFFFFFFFF4FFFF0C
:1038B0000010024000127A0080B582B000AF78603C
:1038C0007B685B6A012213400BD07B681B685B68D6
:1038D0004A4A134019007B689A6A7B681B680A434E
:1038E0005A607B685B6A022213400BD07B681B68BE
:1038F0005B68434A134019007B68DA6A7B681B687F
:103900000A435A607B685B6A042213400BD07B68D1
:103910001B685B683B4A134019007B681A6B7B6825
:103920001B680A435A607B685B6A082213400BD00D
:103930007B681B685B68344A134019007B685A6BCC
:103940007B681B680A435A607B685B6A10221340DD
:103950000BD07B681B689B682C4A134019007B685E
:103960009A6B7B681B680A439A607B685B6A2022BB
:1039700013400BD07B681B689B68254A13401900D5
:103980007B68DA6B7B681B680A439A607B685B6ABA
:10399000402213401DD07B681B685B681D4A1340A2
:1039A00019007B681A6C7B681B680A435A607B6845
:1039B0001A6C80235B039A420BD17B681B685B689F
:1039C000154A134019007B685A6C7B681B680A43D0
:1039D0005A607B685B6A802213400BD07B681B684F
:1039E0005B680E4A134019007B689A6C7B681B6801
:1039F0000A435A60C046BD4602B080BDFFFFFDFFCE
:103A0000FFFFFEFFFFFFFBFFFF7FFFFFFFEFFFFF5B
:103A1000FFDFFFFFFFFFEFFFFFFF9FFFFFFFF7FF4E
:103A200080B592B002AF78607B6884220021995003
:103A3000FDF772F90300FB637B681B681B680822B3
:103A40001340082B2CD1FB6B802291037868464AE7
:103A50000092002200F08CF8031E21D0EFF31083B7
:103A60007B627B6ABB630123BB62BB6A83F3108802
:103A7000C0467B681B681A687B681B6880218A4384
:103A80001A60BB6BFB62FB6A83F31088C0467B68DD
:103A90002022DA677B6878220021995403235FE0B3
:103AA0007B681B681B6804221340042B46D1FB6B08
:103AB0008022D10378682C4A0092002200F058F846
:103AC000031E3BD0EFF31083FB60FB687B63012395
:103AD0003B613B6983F31088C0467B681B681A68AA
:103AE0007B681B6821490A401A607B6B7B617B699C
:103AF00083F31088C046EFF31083BB61BB693B635F
:103B00000123FB61FB6983F31088C0467B681B6857
:103B10009A687B681B6801218A439A603B6B3B6211
:103B20003B6A83F31088C0467B688022202199502D
:103B30007B68782200219954032311E07B682022BE
:103B4000DA677B688022202199507B6800221A6600
:103B50007B6800225A667B687822002199540023F2
:103B60001800BD4610B080BDFFFFFF01DFFEFFFF64
:103B700080B584B000AFF860B9603B60FB1D1A707F
:103B80004BE0BB69013348D0FDF7C6F802003B6843
:103B9000D31ABA699A4202D3BB69002B01D103231D
:103BA0004BE0FB681B681B680422134035D0FB68A0
:103BB0001B68DB6908221340082B11D1FB681B68C6
:103BC00008221A62FB68180000F03CF8FB688422A7
:103BD00008219950FB6878220021995401232CE098
:103BE000FB681B68DA6980231B011A4080231B01D4
:103BF0009A4212D1FB681B68802212011A62FB688C
:103C0000180000F01FF8FB68842220219950FB68FF
:103C100078220021995403230FE0FB681B68DB69BD
:103C2000BA681340BA68D31A5A425341DBB21A0039
:103C3000FB1D1B789A42A4D000231800BD4604B097
:103C400080BD000080B58EB000AF7860EFF31083C8
:103C50007B617B697B630123BB61BB6983F3108854
:103C6000C0467B681B681A687B681B6826490A4047
:103C70001A607B6BFB61FB6983F31088C046EFF32E
:103C800010833B623B6A3B6301237B627B6A83F365
:103C90001088C0467B681B689A687B681B68012196
:103CA0008A439A603B6BBB62BB6A83F31088C04651
:103CB0007B681B6E012B18D1EFF31083BB60BB68D0
:103CC000FB620123FB60FB6883F31088C0467B68BE
:103CD0001B681A687B681B6810218A431A60FB6A9C
:103CE0003B613B6983F31088C0467B6880222021BA
:103CF00099507B6800221A667B6800229A66C0464B
:103D0000BD460EB080BDC046DFFEFFFF70B5002689
:103D10000C4D0D4C641BA410A64209D1002600F0E6
:103D200021F80A4D0A4C641BA410A64205D170BDAF
:103D3000B300EB5898470136EEE7B300EB589847CD
:103D40000136F2E7B43D0008B43D0008B43D000878
:103D5000B83D000803008218934200D170471970E3
:103D60000133F9E7F8B5C046F8BC08BC9E46704779
:0C3D7000F8B5C046F8BC08BC9E46704781
:103D7C00000000000000000001020304060708090F
:103D8C0000000000010203040203040506070809F1
:103D9C000A0B0C0D0E0F1010010203040506070888
:083DAC00090A0B0C0D0E0F10AB
:043DB400E90000081A
:043DB800C10000083E
:0C3DBC0000127A0004000000010000006A
:0400000508000C11D2
:00000001FF
